{
  "_format": "hh-sol-artifact-1",
  "contractName": "EvmAssets",
  "sourceName": "contracts/EvmAssets.sol",
  "abi": [
    {
      "anonymous": false,
      "inputs": [
        {
          "indexed": true,
          "internalType": "address",
          "name": "sender",
          "type": "address"
        },
        {
          "indexed": true,
          "internalType": "address",
          "name": "receiver",
          "type": "address"
        },
        {
          "indexed": true,
          "internalType": "address",
          "name": "asset",
          "type": "address"
        },
        {
          "indexed": false,
          "internalType": "uint256",
          "name": "amount",
          "type": "uint256"
        }
      ],
      "name": "CompleteEvmBridge",
      "type": "event"
    },
    {
      "anonymous": false,
      "inputs": [
        {
          "indexed": true,
          "internalType": "address",
          "name": "sender",
          "type": "address"
        },
        {
          "indexed": true,
          "internalType": "address",
          "name": "receiver",
          "type": "address"
        },
        {
          "indexed": true,
          "internalType": "address",
          "name": "asset",
          "type": "address"
        },
        {
          "indexed": false,
          "internalType": "uint256",
          "name": "tokenId",
          "type": "uint256"
        },
        {
          "indexed": false,
          "internalType": "uint256",
          "name": "assetType",
          "type": "uint256"
        }
      ],
      "name": "CompleteNFtEvmBridge",
      "type": "event"
    },
    {
      "inputs": [
        {
          "internalType": "uint256",
          "name": "amount",
          "type": "uint256"
        },
        {
          "internalType": "address",
          "name": "asset",
          "type": "address"
        },
        {
          "internalType": "address",
          "name": "sender",
          "type": "address"
        },
        {
          "internalType": "address",
          "name": "receiver",
          "type": "address"
        }
      ],
      "name": "completeBridge",
      "outputs": [],
      "stateMutability": "nonpayable",
      "type": "function"
    },
    {
      "inputs": [
        {
          "internalType": "uint256",
          "name": "tokenId",
          "type": "uint256"
        },
        {
          "internalType": "address",
          "name": "asset",
          "type": "address"
        },
        {
          "internalType": "address",
          "name": "sender",
          "type": "address"
        },
        {
          "internalType": "address",
          "name": "receiver",
          "type": "address"
        }
      ],
      "name": "completeNFTBridge",
      "outputs": [],
      "stateMutability": "nonpayable",
      "type": "function"
    }
  ],
  "bytecode": "0x608060405234801561001057600080fd5b5061031b806100206000396000f3fe608060405234801561001057600080fd5b50600436106100365760003560e01c80639bfa9d0a1461003b578063e55b8afb14610057575b600080fd5b610055600480360381019061005091906101a4565b610073565b005b610071600480360381019061006c91906101a4565b6100f8565b005b8273ffffffffffffffffffffffffffffffffffffffff168173ffffffffffffffffffffffffffffffffffffffff168373ffffffffffffffffffffffffffffffffffffffff167f85ce38d44561ee4b035ccf08207979c0f2fc38041ea4cf65ff88b87275419e888760016040516100ea929190610240565b60405180910390a450505050565b8273ffffffffffffffffffffffffffffffffffffffff168173ffffffffffffffffffffffffffffffffffffffff168373ffffffffffffffffffffffffffffffffffffffff167f8ce19f6bb511ca0f3d69b56c40278f6df9385b3da3314f646b53496201bfa9ce8760405161016c9190610225565b60405180910390a450505050565b600081359050610189816102b7565b92915050565b60008135905061019e816102ce565b92915050565b600080600080608085870312156101ba57600080fd5b60006101c88782880161018f565b94505060206101d98782880161017a565b93505060406101ea8782880161017a565b92505060606101fb8782880161017a565b91505092959194509250565b610210816102a5565b82525050565b61021f8161029b565b82525050565b600060208201905061023a6000830184610216565b92915050565b60006040820190506102556000830185610216565b6102626020830184610207565b9392505050565b60006102748261027b565b9050919050565b600073ffffffffffffffffffffffffffffffffffffffff82169050919050565b6000819050919050565b60006102b08261029b565b9050919050565b6102c081610269565b81146102cb57600080fd5b50565b6102d78161029b565b81146102e257600080fd5b5056fea2646970667358221220149d375cb4fd600b9d50ca43b3ef8c1a984a68b05834f54194c93f00c9f6187264736f6c63430008020033",
  "linkReferences": {},
  "deployedLinkReferences": {}
}